:100000006EC000007FC000007DC000007BC000000B
:1000100079C0000077C0000075C0000073C0000008
:1000200071C000006FC000006DC000006BC0000018
:1000300069C0000067C0000065C0000063C0000028
:1000400061C000005FC000005DC000005BC0000038
:1000500059C0000057C0000055C0000053C0000048
:1000600051C000004FC00000F402FD02FD02FD027D
:10007000FD02FD02FD02FD02FD02FD02FD02FD0288
:10008000FD02FD02FD02FD0272027F028C02990256
:10009000A602B302C002CD02DA02E702FD02FD02AF
:1000A000FD02FD02FD02FD02FD02280134014101B5
:1000B0004E015C016601730181018E019A01A70165
:1000C000B501C201CB01D401E201EF01FC010A023A
:1000D0001802220230023D024B025802650211242E
:1000E0001FBECFEFD8E0DEBFCDBF11E0A0E0B1E092
:1000F000ECE7F6E002C005900D92A237B107D9F700
:10010000A6D2BAC27DCF2D9A2FEF83EC99E0215071
:1001100080409040E1F700C0000085B115B82FEF96
:1001200081EE94E0215080409040E1F700C0000053
:1001300008952D9A2FEF8BE49DE12150804090404F
:10014000E1F700C0000085B115B82FEF81EE94E013
:10015000215080409040E1F700C000000895EF92E8
:10016000FF920F931F93CF93DF938C017C01C0E02C
:10017000D0E015C0F70191917F019E3211F4C3DFE9
:100180000DC09D3211F4D5DF09C0FFEF23ED80E3F0
:10019000F15020408040E1F700C000002196F801B6
:1001A00001900020E9F73197E01BF10BCE17DF0734
:1001B00008F3DF91CF911F910F91FF90EF90089579
:1001C0002F923F924F925F926F927F928F929F9267
:1001D000AF92BF92CF92DF92EF92FF920F931F9355
:1001E000CF93DF93CDB7DEB7C456D1090FB6F894DD
:1001F000DEBF0FBECDBF7C016C0100E010E0CE0180
:1002000001965C010F2EF6E05F2EF02D0F2EF5E02B
:100210009F2EF02D0F2EFDE22F2EFEE23F2E412CC1
:10022000F02D0F2EFDE26F2E762C812CF02DE7C1E4
:10023000D6018D916D01082E000C990B15D2809777
:100240008B33910508F0D9C18C5C9F4FFC0106C22D
:10025000F50101900020E9F731978EE29DE2A0E0E0
:1002600080839183A283C9C1D5010D900020E9F755
:100270001197EEE4F1E0892D01900D928A95E1F756
:10028000BCC1D5010D900020E9F71197E0E0F1E045
:10029000892D01900D928A95E1F7AFC1F50101908A
:1002A0000020E9F731978DE29EE2AEE2B0E0808374
:1002B0009183A283B383A1C1F50101900020E9F7E6
:1002C0003197AEE2B0E0B183A08397C1D5010D9024
:1002D0000020E9F71197E5E0F1E0892D01900D92FA
:1002E0008A95E1F78AC1F50101900020E9F731977D
:1002F0008DE29DE2AEE2B0E080839183A283B3837E
:100300007CC1D5010D900020E9F71197E8E4F1E0F8
:10031000892D01900D928A95E1F76FC1F501019049
:100320000020E9F731978EE29EE2A0E0808391837E
:10033000A28363C1D5010D900020E9F71197E0E396
:10034000F1E0892D01900D928A95E1F756C1F501F2
:1003500001900020E9F731978DE29EE2ADE2B0E036
:1003600080839183A283B38348C1D5010D9000207F
:10037000E9F71197EAE0F1E0892D01900D928A9555
:10038000E1F73BC1F50101900020E9F73197608268
:100390007182828232C1F50101900020E9F7319724
:1003A00020823182428229C1F50101900020E9F7C3
:1003B00031978DE29DE2ADE2B0E080839183A2832C
:1003C000B3831BC1D5010D900020E9F71197EFE031
:1003D000F1E0892D01900D928A95E1F70EC1D501CA
:1003E0000D900020E9F71197E4E1F1E0892D0190EB
:1003F0000D928A95E1F701C1F50101900020E9F71E
:1004000031978EE29DE2AEE2B0E080839183A283D9
:10041000B383F3C0F50101900020E9F731978EE234
:100420009EE2AEE2B0E080839183A283B383E5C015
:10043000F50101900020E9F73197ADE2B0E0B1831A
:10044000A083DBC0F50101900020E9F731978EE22F
:100450009EE2ADE2B0E080839183A283B383CDC0FE
:10046000D5010D900020E9F71197ECE3F1E0892D1B
:1004700001900D928A95E1F7C0C0F501019000202E
:10048000E9F731978EE29DE2ADE2B0E0808391839F
:10049000A283B383B2C0D5010D900020E9F7119774
:1004A000E9E1F1E0892D01900D928A95E1F7A5C06F
:1004B000D5010D900020E9F71197EEE1F1E0892DCB
:1004C00001900D928A95E1F798C0D5010D9000201A
:1004D000E9F71197E4E5F1E0892D01900D928A95F5
:1004E000E1F78BC0D5010D900020E9F71197E3E209
:1004F000F1E0852D01900D928A95E1F77EC0D5013E
:100500000D900020E9F71197E9E2F1E0852D0190C7
:100510000D928A95E1F771C0D5010D900020E9F7A1
:100520001197EFE2F1E0852D01900D928A95E1F7A8
:1005300064C0D5010D900020E9F71197E5E3F1E0E3
:10054000852D01900D928A95E1F757C0D5010D9048
:100550000020E9F71197EBE3F1E0852D01900D9272
:100560008A95E1F74AC0D5010D900020E9F711976F
:10057000E1E4F1E0852D01900D928A95E1F73DC00F
:10058000D5010D900020E9F71197E7E4F1E0852D02
:1005900001900D928A95E1F730C0D5010D900020B1
:1005A000E9F71197EDE4F1E0852D01900D928A9520
:1005B000E1F723C0D5010D900020E9F71197E3E59D
:1005C000F1E0852D01900D928A95E1F716C0D501D5
:1005D0000D900020E9F71197E9E5F1E0852D0190F4
:1005E0000D928A95E1F709C0F50101900020E9F725
:1005F0003197A0E2B0E0B183A0830F5F1F4FF701F6
:1006000001900020E9F73197EE19FF090E171F0737
:1006100008F40ECECE010196A2DDCC59DF4F0FB605
:10062000F894DEBF0FBECDBFDF91CF911F910F9128
:10063000FF90EF90DF90CF90BF90AF909F908F9002
:100640007F906F905F904F903F902F900895259AE4
:100650008FE591E0B5DD80E090E00895EE0FFF1F9B
:100660000590F491E02D09949111089581568A51D5
:0C06700008F4805285580895F894FFCFDC
:10067C002D2E2D2E002E2E2D2E002E2D2E2E002E1C
:10068C002D2D2E002D2D2E2D002D2E2E2D002D2E10
:10069C002D2D002D2D2D2D2D002E2D2D2D2D002E03
:1006AC002E2D2D2D002E2E2E2D2D002E2E2E2E2DC0
:1006BC00002E2E2E2E2E002D2E2E2E2E002D2D2EDB
:1006CC002E2E002D2D2D2E2E002D2D2D2D2E0042BB
:1006DC007269616E20566F203831393630363438B5
:0206EC003700D5
:00000001FF
