S00D00004C616220332E73726563B5
S113000033C0000039C0000037C0000035C0000014
S113001033C0000031C000002FC000002DC000001C
S11300202BC0000029C0000027C0000025C000002C
S113003023C0000021C000001FC000001DC000003C
S11300401BC0000019C0000017C0000015C000004C
S113005013C0000011C000000FC000000DC000005C
S11300600BC0000009C0000011241FBECFEFD8E070
S1130070DEBFCDBF64D09CC1C3CFCF92DF92EF92DD
S1130080FF92CF93DF9320E030E048EC51E4B8D006
S11300906B017C0120E030E0A901AED01816A4F475
S11300A0C0E0D0E085E08A95F1F700002196BE011A
S11300B00D2E000C880B990B64D09B01AC01C70179
S11300C0B6019AD0181674F3DF91CF91FF90EF9098
S11300D0DF90CF900895CF93DF93C4E6D0E02D9ABC
S11300E08FE99FE00197F1F700C0000085B115B8D2
S11300F0BE010D2E000C880B990B43D0BEDF219757
S113010070F7DF91CF910895CF93DF93C1E0D0E0F2
S11301102D9A8FE99FE00197F1F700C0000085B1A7
S113012015B8BE010D2E000C880B990B2AD0A5DF43
S11301302196C536D10561F7DF91CF910895259AAF
S1130140279880E090E0D0E0C0E001E010E01F9943
S113015007C0C1DF1F990EC02D9A1F9BFDCF0AC097
S11301601F9BF5CF8130910591F7CEDF83B18D2FA1
S11301709C2FEDCF1F99F9CF802F912FE8CFE894D2
S113018009C097FB3EF490958095709561957F4FDB
S11301908F4F9F4F9923A9F0F92F96E9BB27939589
S11301A0F695879577956795B795F111F8CFFAF499
S11301B0BB0F11F460FF1BC06F5F7F4F8F4F9F4FCA
S11301C016C0882311F096E911C0772321F09EE828
S11301D0872F762F05C0662371F096E8862F70E08E
S11301E060E02AF09A95660F771F881FDAF7880F68
S11301F09695879597F9089566D008F48FEF08953A
S11302000BD09CC08DD028F092D018F0952309F023
S11302107EC083C01124C6C0A2D0A0F3959FD1F3A1
S1130220950F50E0551F629FF001729FBB27F00DA0
S1130230B11D639FAA27F00DB11DAA1F649F6627F5
S1130240B00DA11D661F829F2227B00DA11D621F44
S1130250739FB00DA11D621F839FA00D611D221FFE
S1130260749F3327A00D611D231F849F600D211DE2
S1130270822F762F6A2F11249F5750408AF0E1F085
S113028088234AF0EE0FFF1FBB1F661F771F881FCE
S113029091505040A9F79E3F510570F038C082C07C
S11302A05F3FECF3983EDCF3869577956795B795B9
S11302B0F795E7959F5FC1F7FE2B880F911D9695E3
S11302C0879597F90895990F0008550FAA0BE0E850
S11302D0FEEF16161706E807F907C0F01216130604
S11302E0E407F50798F0621B730B840B950B39F444
S11302F00A2661F0232B242B252B21F408950A26AA
S113030009F4A140A6958FEF811D811D089597F9E9
S11303109F6780E870E060E008959FEF80EC0895A7
S113032000240A94161617061806090608950024D0
S11303300A9412161306140605060895092E03944A
S1130340000C11F4882352F0BB0F40F4BF2B11F4BE
S113035060FF04C06F5F7F4F8F4F9F4F089557FD1D
S11303609058440F551F59F05F3F71F04795880F1F
S113037097FB991F61F09F3F79F0879508951216B6
S113038013061406551FF2CF4695F1DF08C0161662
S113039017061806991FF1CF869571056105089413
S11303A00895E894BB2766277727CB0197F908952A
S10703B0F894FFCFEB
S9030000FC
