:1000000033C0000041C000003FC000003EC00000FF
:100010003BC0000039C0000037C0000035C0000000
:1000200033C0000031C000002FC000002DC0000010
:100030002BC0000029C0000037C0000025C0000010
:1000400023C0000021C000001FC000001DC0000030
:100050001BC0000019C0000017C0000015C0000040
:1000600013C0000011C0000011241FBECFEFD8E064
:10007000DEBFCDBF21E0A0E0B1E001C01D92A13004
:10008000B207E1F71FD12FC1BBCF1F920F920FB65E
:100090000F9211241F9902C01D9A01C01D980F9044
:1000A0000FBE0F901F9018951F920F920FB60F92D0
:1000B00011245F926F927F928F929F92AF92BF9224
:1000C000CF92DF92EF92FF920F931F932F933F9364
:1000D0004F935F936F937F938F939F93AF93BF9350
:1000E000CF93DF93EF93FF9364E070E0FF24FA94E3
:1000F000C1E0D0E000E010E00F2EF7E05F2EF02D21
:100100006894662463F80F2EF9E07F2EF02D689432
:10011000882482F80F2EF5E09F2EF02D0F2EF6E0AA
:10012000AF2EF02DBB24B3946894CC24C1F80F2ECD
:10013000F3E0DF2EF02D8BB1FBB88BB1FE01062E64
:1001400002C0EE0FFF1F0A94E2F79E2F90958923BD
:100150008BB9AE01202F312F04C02F5F3F4F4F5F6F
:100160005F4FD90185B18F6085B983B190E0022ED0
:1001700002C0959587950A94E2F780FD29C089B160
:1001800090E08E239F23892B19F56430710549F483
:10019000AB2B81F12130310579F122303105C1F4E9
:1001A00035C06530710549F4AB2B41F12130310583
:1001B00039F12230310561F42BC06630710541F40C
:1001C000AB2B01F121303105F9F02230310511F16D
:1001D0004330510514F29E2D990F892F880F880FF7
:1001E000890F809300016F5F7F4F6730710509F0C1
:1001F000A2CF12C0EB2CB1CFEC2CAFCFE82CADCFFF
:10020000E92CABCFE52CA9CFE62CA7CFED2CE3CF83
:10021000EA2CE1CFE72CDFCFFF91EF91DF91CF9177
:10022000BF91AF919F918F917F916F915F914F910E
:100230003F912F911F910F91FF90EF90DF90CF9002
:10024000BF90AF909F908F907F906F905F900F9036
:100250000FBE0F901F90189594B5926094BD95B500
:10026000956095BD982F990F990F990F981B97BD81
:1002700082E080936E000895E0E8F0E08081836280
:100280008083E1E8F0E080818B61808384B184B970
:1002900084E494E09093870080938600809100012D
:1002A00099E2899F812D112482958F7040E253E05D
:1002B000849F9001859F300D1124309389002093F5
:1002C00088000895259A2798EBE6F0E08081806801
:1002D0008083E8E6F0E0808181608083789486E026
:0A02E000BBDFCADFFCCFF894FFCFAC
:00000001FF
