:1000000033C0000039C0000037C0000035C0000018
:1000100033C0000031C000002FC000002DC0000020
:100020002BC0000029C0000027C0000025C0000030
:1000300023C0000021C000001FC000001DC0000040
:100040001BC0000019C0000017C0000015C0000050
:1000500013C0000011C000000FC000000DC0000060
:100060000BC0000009C0000011241FBECFEFD8E074
:10007000DEBFCDBFC2D0DBC0C3CFFF920F931F93B3
:10008000CF93DF9364E070E0FF24FA94C1E0D0E006
:1000900000E010E08BB1FBB88BB1DE01062E02C090
:1000A000AA0FBB1F0A94E2F79A2F909589238BB968
:1000B000AE01202F312F04C02F5F3F4F4F5F5F4FA6
:1000C000F90185B18F6085B983B190E0022E02C03D
:1000D000959587950A94E2F780FD46C089B190E036
:1000E0008A239B23892B09F03FC06430710579F482
:1000F000EF2B09F444C02130310509F442C022300D
:10010000310509F440C02330310571F53EC065303A
:10011000710561F4EF2BD9F121303105D1F1223095
:100120003105C9F123303105F9F437C06630710566
:1001300061F4EF2BA1F12130310599F12230310525
:1001400091F12330310581F430C06730710561F4DD
:10015000EF2B69F12130310561F12230310559F180
:100160002330310561F529C0443051050CF4A4CF8A
:100170006F5F7F4F6830710509F08CCF25C081E338
:1001800023C082E321C083E31FC081E41DC084E358
:100190001BC085E319C086E317C082E415C087E35E
:1001A00013C088E311C089E30FC083E40DC08AE265
:1001B0000BC080E309C083E207C084E405C044307B
:1001C00051050CF479CFDACFDF91CF911F910F91C8
:1001D000FF9008959093C5008093C40088E18093B8
:1001E000C10086E08093C2000895E0ECF0E09081C9
:1001F00095FFFDCF8093C600089584B184B98AB17C
:10020000806F8AB985B18F6085B98BB1806F8BB9EA
:1002100087E690E0DFDF31DFE8DF2FE986E891E075
:10022000215080409040E1F700C00000F4CFF894E6
:02023000FFCFFE
:00000001FF
