S01B00004D6F74696F6E53656E736F7250726F6A6563742E7372656342
S113000033C000004CC000004AC0000048C00000DB
S113001046C0000044C0000042C0000040C00000D0
S11300203EC000003CC000003AC0000038C00000E0
S113003036C0000034C0000032C0000030C00000F0
S11300402EC000002CC000002AC0000028C0000000
S113005026C0000024C0000022C0000020C0000010
S11300601EC000001CC0000011241FBECFEFD8E04A
S1130070DEBFCDBF11E0A0E0B1E0E0E7F1E002C0F7
S113008005900D92AA31B107D9F721E0AAE1B1E0B8
S113009001C01D92AB31B207E1F75BD067C0B0CFAE
S11300A09093C5008093C40088E18093C10086E0EA
S11300B08093C2000895CF93DF93DC01E0ECF0E07D
S11300C0808185FFFDCFED0120E030E046EC50E07B
S11300D00BC089E698E10197F1F700C0000089910F
S11300E0FA0180832F5F3F4FFD0101900020E9F763
S11300F03197EA1BFB0B2E173F0758F3DF91CF9183
S11301000895309B25C080E091E0D5DF80931A01EB
S11301101DC02D9A83EC99E00197F1F700C000000F
S11301202D9883EC99E00197F1F700C000001F9926
S11301300DC084E290E02FE33DE043E021503040E5
S11301404040E1F700C000000197A9F73099E1CFE2
S113015008953898409A84B184B9259A85B18F60FE
S113016085B987E690E09CDFCCDFFECFF894FFCF23
S1130170496E747275646572204465746563746550
S10D018064210D0A000000000000D5
S9030000FC
