:1000000033C0000044C0000042C0000040C00000F7
:100010003EC000003CC000003AC0000038C00000F4
:1000200036C0000034C0000032C0000030C0000004
:100030002EC000002CC000002AC0000028C0000014
:1000400026C0000024C0000022C0000020C0000024
:100050001EC000001CC000001AC0000018C0000034
:1000600016C0000014C0000011241FBECFEFD8E05E
:10007000DEBFCDBF11E0A0E0B1E0E8E1F1E002C0F9
:1000800005900D92AE30B107D9F721D043C0B8CF5B
:100090009093C5008093C40088E18093C10086E0FE
:1000A0008093C2000895E0ECF0E0908195FFFDCFD1
:1000B0008093C6000895CF93DF93EC0181E089938C
:1000C000F2DF89918111FCCFDF91CF910895CF9319
:1000D000DF93CDB7DEB72D970FB6F894DEBF0FBE16
:1000E000CDBF8DE0E0E0F1E0DE01119601900D92D0
:1000F0008A95E1F787E690E0CBDFCE010196DBDF62
:100100002FE986E891E0215080409040E1F700C05F
:080110000000F3CFF894FFCFCB
:0E011800203831363930363438370D0A0000C1
:00000001FF
