:1000000033C0000041C000003FC000003DC0000000
:100010003BC0000039C0000037C0000035C0000000
:1000200033C0000031C000002FC0000083C00000BA
:100030008CC0000029C0000093C0000025C0000053
:1000400023C0000021C000001FC000001DC0000030
:100050001BC0000055C0000017C0000015C0000004
:1000600013C0000011C0000011241FBECFEFD8E064
:10007000DEBFCDBF21E0A0E0B1E001C01D92A43001
:10008000B207E1F725D0A2C0BBCF85B58D6085BD95
:1000900016BC8BE887BDEEE6F0E08081826080834D
:1000A00078940895E1E8F0E080818B60808310927D
:1000B00085001092840084E191E090938900809300
:1000C0008800EFE6F0E08081866080837894089570
:1000D000259A249AE7DFD9DFEAE8F0E0809102016F
:1000E0009091030191838083F9CFECE7F0E0808168
:1000F00087648083EAE7F0E080818E6E80830895D4
:100100001F920F920FB60F9211248F939F9380919D
:10011000780090917900909303018093020190936D
:100120008B0080938A009F918F910F900FBE0F904C
:100130001F9018951F920F920FB60F9211242D9AAF
:100140000F900FBE0F901F9018951F920F920FB631
:100150000F9211242D980F900FBE0F901F9018959D
:100160001F920F920FB60F9211242F933F934F932C
:100170005F936F937F938F939F93AF93BF93EF930F
:10018000FF938091000190910101892B51F4ADDF23
:10019000809100019091010101969093010180935B
:1001A000000195B180E2892785B9FF91EF91BF9158
:1001B000AF919F918F917F916F915F914F913F91FF
:1001C0002F910F900FBE0F901F901895F894FFCFAE
:00000001FF
