S01400004C61622033207061727420322E7372656385
S113000033C0000039C0000037C0000035C0000014
S113001033C0000031C000002FC000002DC000001C
S11300202BC0000029C0000027C0000025C000002C
S113003023C0000021C000001FC000001DC000003C
S11300401BC0000019C0000017C0000015C000004C
S113005013C0000011C000000FC000000DC000005C
S11300600BC0000009C0000011241FBECFEFD8E070
S1130070DEBFCDBF6BD08AC0C3CFE1E8F0E08081A2
S113008089608083EFE6F0E080818660808380E48D
S11300909FE19093890080938800089594B59260BD
S11300A094BD95B5956095BD982F990F990F990FAB
S11300B0981B97BD82E080936E000895FF920F9382
S11300C01F93CF93DF931816190684F48C01C0E0B4
S11300D0D0E06894FF24F1F8D0DF81E0DFDFB19B4A
S11300E0FECFF6BA2196C017D107B1F7DF91CF91B1
S11300F01F910F91FF900895CF93DF93C4E6D0E052
S11301002D9A8FE99FE00197F1F700C0000085B1B7
S113011015B8CE01D3DF219798F7DF91CF910895D9
S1130120CF93DF93C1E0D0E02D9A8FE99FE0019750
S1130130F1F700C0000085B115B8CE01BFDF2196EC
S1130140C536D10589F7DF91CF910895259A27986F
S113015080E090E0D0E0C0E001E010E01F9907C02B
S1130160CBDF1F990EC02D9A1F9BFDCF0AC01F9B8A
S1130170F5CF8130910591F7D3DF83B18D2F9C2F7B
S1130180EDCF1F99F9CF802F912FE8CFF894FFCFAF
S9030000FC
